:020000040001F9
:1000000000C00100C1000100ED120000F11200006B
:10001000F5120000F9120000FD12000001130000AB
:10002000051300000000000000000000091300009C
:100030000D13000000000000111300001513000054
:10004000EB120000EB12000085020100210201000A
:100050007501010069140000EB120000AD140000EE
:1000600055010100EB1200000D1500003F020100D8
:1000700049020100530201005D0201006702010014
:10008000710201007B020100910101002D140000AA
:100090002D1400002D140000CD1300000D140000DD
:1000A000142601000348854600F03CF8004800474C
:1000B000CD05010000C001000000000000000000AC
:1000C00072B615481549016000F004F8FFF7EAFF21
:1000D00000F07CFA02461160121D9545FBD1704775
:1000E0006B46F0B469460E4A1047FEE7F220F7E788
:1000F000F320F5E7F420F3E7F520F1E7F620EFE74A
:10010000F720EDE7F820EBE7FB20E9E7FC20E7E745
:10011000FE20E5E7FF20E3E700BC0100EDA5CEDE11
:10012000E50D00001CB509480090094801900546FE
:100130000126009C05E0E36807CC33430C3C98475C
:100140001034AC42F7D3FFF7B1FF000018260100CE
:100150001826010010B5F3F715FF0446F1F7B7F9BB
:10016000A00106D501204006F3F7EAFE40BF20BFFC
:1001700020BF10BD80B5012080070068002801D095
:1001800030BFFDE700F08EF9F0F7F4F880BD000015
:1001900070B51D48EE4D28181C490E68F4F784FA16
:1001A000F4F7EAF9002E2CD104461948295C0429F9
:1001B00001D8082000E00C20022900D802201549AF
:1001C0006956491C814201DB01F0F2FE12482C54B1
:1001D000E00703D001200005F3F7E4FEA00703D5F4
:1001E00001204005F3F7DEFE0C480168890605D5BD
:1001F0002021016001208005F3F7D4FE2020F3F7D1
:10020000D9FE40BF70BDC046AE630000140002407E
:100210002B62000029620000AA630000A8030140CD
:1002200080B50320F4F7E0F902F0AEF9F3F77AFDB8
:1002300001F0BEFEF3F79EFDF1F7C2FF80BD80B571
:10024000002001F053FC80BD80B5012001F04EFC80
:1002500080BD80B5022001F049FC80BD80B503203F
:1002600001F044FC80BD80B5042001F03FFC80BD5E
:1002700080B5052001F03AFC80BD80B5062001F074
:1002800035FC80BD034801680622914308224A409C
:10029000026070479C030140F0B58BB00393059159
:1002A000E52A019001D9082002E0812A02D9042020
:1002B000049005E04F2A01D8012100E002210491B9
:1002C000684BA34CE65C00250695079509952F46DB
:1002D00008952C460296B6B296421CD20598835DCC
:1002E000002B15D0B3000398C35800200999C918F2
:1002F0000991474173430899C918089144417519F8
:10030000304670430699411806910798401C0790A3
:1003100004983618DFE7049705950298801E02902E
:1003200000218BB2029898421DDD9B000398C358B0
:100330008E18B6B2304658430027089D2D180895F0
:100340007C410998C0180990049878410490059858
:10035000801905907643069830180690491C079836
:10036000401C0790DDE7069EF3170998049F394665
:100370003246F0F7D7FF02900D460598C3170246A4
:100380000590089821460093F0F7CCFF029A101AC6
:100390008D41EA170295294651405040801A9141FB
:1003A000079A5643059A5243B61AC20F0A431AD007
:1003B000E20F0023089DAA185C415208E507521974
:1003C0000892FA0F099DAA185F415208FB07D2183C
:1003D00009924008CA078018F20FB218561064102C
:1003E0007F104908E1E70299002900D540420799AA
:1003F000002929D0002E27D00AAA3146F3F77EFD26
:1004000001990860079AD31708982146F0F78AFFE8
:1004100004460D4609983946059A009BF0F782FF7D
:10042000201A8D41010E2A025118000201225203A6
:1004300096420FDBCA0F002380184B414008D907B2
:10044000401859107608F1E7039800680199086090
:10045000002004E00AAA3146F3F750FD01994860F4
:100460000BB0F0BD4962000001220021930605D0C7
:10047000024200D0491C1206D20DF7E7C8B27047FD
:10048000002807D4C10B08D0C10D05D1010A364898
:10049000084302E0002000E0014880B27047C046F7
:1004A000FFFF000010B586B027480068274A28499A
:1004B00088540020182804D06A4600231350001DD9
:1004C000F8E76846A9228280224A02815922828165
:1004D000214A9208214B1A434280214A8A189208E5
:1004E0001A43C280012293031EA212889408E218C4
:1004F00042821D4AA418C4821C4C0C19A4B2A40840
:10050000E31843811A4B1B4CE3189B000C3309245E
:100510001C4304239C4304800988174BC91889B2E3
:1005200089088918C1811549154A511889000C316B
:100530000C2291430A46093202820A318182062145
:10054000EFF75AFE06B010BD88030140CA630000F1
:1005500044400100C90500000000010000C0FFFF89
:1005600024620000002801000080FFFF5C620000A0
:1005700000000000182600009C6600005C000000DF
:100580000000000005281BD878440079400087440B
:10059000041714020207C80610E0480710D111E042
:1005A000094A4A4301208303D218D20B2F23DB438D
:1005B00053435918052903D270470807400F01D04B
:1005C0000020704701207047AB02000082B0012775
:1005D000380652490A1872B60A60CE4D28182860AB
:1005E000F0F7D8FF4E484F4929504F484F492950FE
:1005F0004F4850492950504C504828515048466D5A
:10060000B807006800281CD0F3F7BCFC0028FBD515
:10061000B006800F0BD0F2F7B3F84A480021C17240
:10062000494968182A6851181C22F0F793FEF1F71F
:100630003FFE46481021016041204006F3F780FC50
:1006400064E034460026F5432846F3F779FC00952C
:100650002846B04DF3F780FC282001940442364C24
:100660001FD039482C18F1F785FF66832676E6817E
:10067000BB2060800C20334C132803D02654E67432
:10068000401CF9E726763248606101F085F91920AF
:100690005B2802D02654401CFAE701F0EBFBE6721F
:1006A000254C2C48285C01F027FC01F05DFC2A4811
:1006B0000099016041602948285C214E3060F807AC
:1006C000F3F770FCF3F766FC0028FBD4776501981C
:1006D000C00702D1F3F7AEFC10E02148295A7D2073
:1006E000C00048431F49F3F78BFCF3F7F5FE1E48A3
:1006F000F3F760FC05200003F3F754FCF1F7C4FDA9
:100700000120022187220023F0F7C2F828598047F0
:1007100040BF62B601F070F9FCE7C046004001003E
:100720005862000059110100546200002D090100B7
:10073000506200008D1A00004C620000451B000052
:1007400088030140002801003062000000E100E061
:1007500000000F0F2B62000010000440CA6300006D
:1007600024630000B80B000010510000FEB50C46D9
:10077000204988423CD8089F032F029001920DD057
:10078000022F06D0002F0BD11846FFF76DFE830015
:1007900007E01846FFF768FE034602E0022300E088
:1007A000012315485B490D5AE120C600002D0AD0EF
:1007B000099938461F46FFF7E5FE56493B46002893
:1007C00001D0280107E00D48085A002801D0000197
:1007D00001E03046C830019A0A21891ADAB254433E
:1007E000CC40444302984643A64201D80020FEBDB7
:1007F0000120FEBD40420F00326200003E62000058
:1008000010B50024E0B2072803D201F06FF9641C90
:10081000F8E710BDF0B585B002933D4C3D4B1B5D34
:100820005B1E3D4C032B01D29B00E4188D008A18FF
:10083000521CD3B20A9A934200D313460392226801
:1008400000924619049042590C9801900B9D08465D
:1008500099420BD280CE97420C4600D8044697426C
:1008600000D81746491C3A462046F1E7002D00D033
:100870002870C7B20021002F039846D0874244D287
:10088000B900049840184568001F0668701BC2171D
:100890005040AE42334600DB2B46821A0498405843
:1008A000C11A100C02D049105208FAE7002905D0ED
:1008B000D0030022F3F722FB401000E01748AE42BD
:1008C00000DB4042010A7E220A40009DA95A144BD7
:1008D00004461C401B1B5B1C4B43A9184988614301
:1008E000C918490AFA0382180E48104008430199B2
:1008F000002900D00860001202994143C81709136B
:1009000081430948814200D3014688B205B0F0BD59
:100910004562000044400100F4A60100FF3F0000D2
:10092000FF0100000080FFFFFFFF0000F0B5FFB0F7
:1009300086B007921391F949F94F795C1A91F949F8
:10094000795C0491189080003818F7494058099054
:10095000002484941EA804700425182D06D0139832
:1009600040190521F0F70FFD6D1DF6E7EF48385CE3
:10097000EF49795C0725189E720002290BD2B30259
:10098000FB181B1D169303231827179704271B9783
:10099000022719970AE03302FB181B1D16937023D8
:1009A000179308231B93032319932B46049F2F406F
:1009B00004973340179D2A401A43199B98401B9B6C
:1009C0001840104301F086F80F90D54F1A98A042B6
:1009D00004D040A801210155641CF7E7D5483D5CCF
:1009E000012012908007006800280ED03868D24994
:1009F0004218937E069392681205920F1DAB1A70EF
:100A000040580590F3F7BEFA0DE0CC483858000581
:100A1000800F1DA90870CA48385C0690C64838582F
:100A20000590F3F7B7FAC7483B18987D1DA90978D8
:100A3000C8401CAA10701793597E192000010C9011
:100A40001078884211D9C048491ECEB2012E00D874
:100A50000126385C1699096840AA3346002B08D055
:100A600000241470521C5B1EF8E70020199018999E
:100A70008EE003224A4310186D43109045431195B0
:100A8000B00016994018051FF0031B901EA80146E0
:100A90004A310D91014640310B91411C0A911830A9
:100AA0000E900020199018991CA8007886426CD2EC
:100AB00040A80024159684552F686E681495AD687B
:100AC0001098381A80194019C117884321460246E8
:100AD0002346F0F727FC119A801AA14118D3BE4291
:100AE000189916D9AE428E4F14D39848385C002816
:100AF000159E149D11D017988388007D80A90090C1
:100B000001940291F1B216982246FFF783FE07E0A6
:100B10001899834F159E149D2FE01B9880903046A6
:100B20008B49795C002916D18A49795C002901D06A
:100B30000C99401880B20F99411A874881420846A3
:100B400000D385480029214600D401468348385AFD
:100B5000081A00D22046199B092B0DD801210A9AA8
:100B6000D1549900809A0E9C62500B99CE54590032
:100B70000D9A50525B1C1993189979481B9A80184A
:100B8000401C1B90761C2D1D8EE71EA8199A027022
:100B90001EA8024640320D92024618321092421CA4
:100BA0000E924A301B9000240C204843042C6DD038
:100BB000381800196B49465C5848385C811EB142B0
:100BC00061DBB700169DEB59711C8A00AA58EF191A
:100BD0003D1F2D68AB4201D9934207D29A4202D9F8
:100BE000BB689A4201D24E4F4DE00E464C4F5749DA
:100BF000795C0029F1B20BD05B4ABB5A80AD002270
:100C00000090019202951698FFF704FE014601E05C
:100C1000C80380904E48385C002817D14D48385C96
:100C2000002801D00C98091888B20F99421A4A4836
:100C30008242114600D348490020002A024600D4CF
:100C40000A464649795A511A00D20146199809288C
:100C500019D8401C1B9A401E06D0931C8DB21288D6
:100C6000AA421A46F7D10EE0199B12980E9AD05458
:100C70009800809A109D2A500D98C65458001B9ACF
:100C800011525B1C1993641C18998DE7C0193749E0
:100C9000401803210C91CD43294600290CD042185D
:100CA000127940AC0023A354FC2A03D840AC12199B
:100CB00093705370491CF0E780A840A91A9C224603
:100CC000169E3346FFF7E8FA2948385C0119819AE5
:100CD0000B925143CA17120E89180912809A0A9270
:100CE0008C18E1178C43691C61438000325830181E
:100CF000031F1B68D218406810184018C11788439A
:100D0000FFF7BEFB13998870000AC8700548385673
:100D100000282FD42046FFF7B3FB30E044620000E8
:100D2000444001002C620000044000002A620000E0
:100D30002B620000436200004C630000546300001B
:100D400066630000306200004762000045620000F8
:100D5000426200004A620000FFFF000024620000BF
:100D6000FF7F00000C4100003462000004410000DD
:100D700049620000EF490998884200D308460E9C5A
:100D800013990870000A48701DA80078002801D047
:100D9000EB4800E0E948089019991EA802460B327A
:100DA0001A9260301490002509958D4200D1D1E04F
:100DB000605D002800D1CBE0A90010981191405847
:100DC000C00BC0B20B994143CA17120E8918091201
:100DD0000A9A8C18E1178C431299C90B401A00B279
:100DE000012801DB172803D30C99614308462EE044
:100DF0004000089A115A10184288511882888918A0
:100E0000801E0088801A129AC94B1A404243D00BA8
:100E100008180021099A0B46F0F784FA0904000C1F
:100E20004018C8497A5A002A0BD0C11712B2D317FA
:100E3000F0F778FAC905400A4018C349795E4018AE
:100E400002E0C149795E08180C99614340180F947B
:100E50000D9A525D179B1B7D934200D85A1ED2B249
:100E60009300169CE258E418231F1B68884200DC9C
:100E70000846159564680128014600D80121181A12
:100E8000801806191798C08886422ADDF017864315
:100E90001798C07D0C18A548385C07466743474340
:100EA00000253046294632462B46F0F73BFA381AE1
:100EB000EF4F2846884114D210981199401812908B
:100EC000601C411E8D4211D0411949080B464B430D
:100ED000A3420A4600D80246A34200D80D46104657
:100EE000EFE700200E9C159D605530E0002D974ADD
:100EF00005D084AA30462946F3F78EFB02461498A3
:100F00001199465015461046F0F7C6FBFF280E9C77
:100F100001D9FF2002E02846F0F7BEFB159D129A8A
:100F20001A9948551368194681480140824A42324D
:100F30001293D80B914200D9401CC0B28000169980
:100F400008580F99401A05214143480809901999FA
:100F50006D1C2AE700207F4902461346521C199C4B
:100F6000A24214D21EACE418A478002C0DD01EAC02
:100F7000E3185C78002C08D01EAC2418A569E4693D
:100F8000641B8C4201DC00245C70001DE5E76648B0
:100F9000385C169017980389C67EB0001290002521
:100FA00060274A2417951999A94234D01EA84019E0
:100FB000407800282BD01EA8005B984227D31DA99B
:100FC0000978002902D05521890000E07821002EFF
:100FD00000D01299814213D91EA8C0591DA90A78C0
:100FE00016990091079901910599159737461E4664
:100FF000069BFFF7BBFB33463E46159F002805D0F6
:10100000179AD0B280A90D54521C17921999A41C9A
:101010003F1D6D1CC8E701211798002918D01990B1
:10102000C2B20021012393420FD280ADEC5C1A9E24
:10103000305DED186D1E2F78F65DB04203D980A8A3
:10104000C7542C7001215B1CEDE71998401EE4E7A2
:101050001798C2B20498824200D30246012110467A
:10106000179200291ED01590C2B2002019900123BA
:10107000934212D280ADEC5C66001B998E5BED183A
:101080006D1E2F787800085A864204D280A8C75473
:101090002C70012019905B1CEAE71598401E179AE6
:1010A0001999DEE7012012901899884028490B68A9
:1010B000034015931398C41DC88818908888199008
:1010C00000218A422DD080A80E46455C68001B99FD
:1010D0000F5AE01E0770390A4170A8001499085889
:1010E000FFF7CEF92070000A60701A98405D611E0B
:1010F0000870169801280FD81548007A00280BD0E0
:101100001998874208D31898874205D8159800285F
:1011100002D012980E498872641D3146711C179ACC
:10112000CFE77FB006B0F0BD2B6200004362000045
:10113000FF7F0000FFFF000004410000B025010018
:10114000E22501003A6200003C620000C0C62D00AA
:1011500000280100CB0C0100F0B589B008A80025DB
:101160000570D148EE4F385A3968CA4A89588A04FE
:10117000920F90400905890FC8403E497A183E49B0
:101180007B182F21CE43194680B204902B462C4663
:10119000002E2FD00868002826D0069107923748E5
:1011A0003A5C9000381880193549415C3548385C04
:1011B000002813D00020029008AF01974020009033
:1011C0000798059525461C46049BFFF723FB2346FD
:1011D0002C46059D1B183878D14F01E05B18184646
:1011E00004196D1C079A0699012000021218091DA6
:1011F0000C36CDE7E8B2401E032825D878440079A4
:1012000040008744011905121F483B52E0B21FE01D
:101210001E484343012109035A18530B1A4ABB5273
:10122000A2B242435018400B0CE0981C83081648A9
:101230003B52A01C800805E0581C430812483B5252
:10124000601C4008C0B203E00F4800233B52184620
:101250000F497B521A463B685A520E4A9918022887
:1012600001D33F2800D30220B854087009B0F0BD64
:10127000444001005C6200005C660000AD66000056
:101280009C66000045620000A8660000AB0A0000F2
:101290002462000049620000F0B587B01346914215
:1012A00056D0164605460B301F22024001273C4609
:1012B000944042480694046004973846A8400722A8
:1012C0001640BFF34F8FBFF36F8F3D4FC4B2042E54
:1012D00002D23868A0433860E0433A6A02403A627A
:1012E0003A460594FC613748069C0460012913D1F5
:1012F000022003951D46F3F777F901F045F93248CE
:10130000B0490818F3F7D0F93A462B46039D2F4809
:101310000168049CA1430160701E062818D8C046CD
:1013200078440079400087441603030E0B0E0B002F
:10133000106A05990843106225480699016007E084
:101340000599516301E00599D16210680843106066
:10135000184607B0F0BD504F9A4CE05B0290022057
:101360001C490A460393F3F72DF9F3F725F9E05BDF
:101370007F26F24301921040E053E019F3F76AF937
:1013800011482018F3F7A2F902993140E05B019A65
:1013900010404018E0530D480168049A1143016061
:1013A000284600F0A3FB039B054A106A05990843F1
:1013B0001062074806990160CAE7C04680E100E074
:1013C0000400044080E200E0AE6300000010004032
:1013D00000E100E0A0860100FEB5029315460191F0
:1013E0002B49F44F78543A6850542A4BF858032646
:1013F00032059043795C022900D30221090501439B
:10140000F9507F242540F1F773FD2348395A6202D1
:101410000A4001998907C90D5118491939521F48C5
:10142000029B03401E4839581E4A0A40D118089AA8
:101430009205120B89183950164C39590F20800229
:101440000A058143099806403303C918B302C91835
:1014500039515B497C18A188920FD140B140A180DD
:101460003A68114BD1522821002801D00A4600E0E9
:101470001922A275002800D0782121810A98607570
:10148000F0F76EFB20753968084A8854FEBDC046E7
:101490002B620000546300005C630000FF03000047
:1014A000506300000000F0FF34620000446200005E
:1014B000F8B572B6194DBF4E705D80072BD519482F
:1014C0000068C00727D0F2F795FD002823D13068C7
:1014D0001549405C02281ED11448006800281AD122
:1014E000F2F750FD044651200702F2F753FDBC42CB
:1014F00011D10521090388420DD1705DC00703D1C8
:1015000001204006F2F74EFDFEF7CCFF715D04208E
:101510000840EEF73BFF62B6F8BDC0462D62000002
:101520004440010050010040AB6600003004004020
:1015300070B50D4604461620F0F7FAFD20499D4A85
:1015400051188A7E6B685F269A55CA7E6B68A02602
:101550009A55CA7B6B68A3269A558A7B6B68A2262C
:101560009A55CA786B68A5269A5589786A68A42323
:10157000D1548022F449872A06D08B18803B1B78EF
:101580006E68B354521CF6E76A68CB798726935588
:101590000A7A6B6870269A554A7A6B6871269A5552
:1015A0008A7A6B6872269A55C97A6A687323D1540D
:1015B000002800D070BD696820228C5470BDC046E0
:1015C000306200004440010070B586B077482025A5
:1015D0000560BFF34F8FBFF36F8F7548ED4900264D
:1015E0000E5404A8EFF726F90498047A72480560AF
:1015F0002046103808250F281BD9204640380828D7
:1016000028D8C0467844007940008744048E667329
:101610005A9DAB80B80001200221DA22009201918C
:101620000290002003215D22F923FFF7D5FE402020
:10163000B1E0C04678440079400087443007B0B03C
:101640002A261B1D39B0B0B0B0B0221904A8F0F79B
:1016500011FDA3E020468038032804D204A92046C7
:10166000F0F758F99FE0FF2C00D098E00D2596E0A8
:10167000F04307E016208EE0172004A9F0F758FD8C
:101680008CE0012000F0A6F888E004A800F0D2F871
:1016900084E004A800F0CEF8054600287FD104A815
:1016A000F0F7E8FCF0F764FD0546FFF7A9F876E0EF
:1016B000182004A9F0F73CFD059800F07FF83546A6
:1016C0006DE0022000214022009201910290172239
:1016D000F923FFF781FE44205DE002210020DA2299
:1016E0000092019002911722F9230146FFF774FE40
:1016F000422050E001210220DA2200920190029162
:1017000003215D22F923FFF767FE432043E0012018
:101710000221DA22009201910290052003215D222C
:10172000F923FFF759FE472035E001200221D1229D
:1017300053000093019102901F33002003213322B4
:10174000FFF74AFE412026E001200221DA22009222
:101750000191029003205D22F9230146FFF73CFE30
:10176000452018E0022000214022009201910290C1
:1017700003201722F923FFF72FFE46200BE002205B
:101780000021402200920191029005201722F923A6
:10179000FFF722FE482004A9FFF7CAFE05462046AF
:1017A0002946F1F759FE06B070BDC04680E100E061
:1017B000A86300004440010000E100E02230002165
:1017C000EA4A422904D053185B7B4354491CF8E78A
:1017D00000207047F8B5E5490A7B53B2C318134C93
:1017E00025682D066468E407240A6419E4151D19A8
:1017F00001231E02AD196D0A16D1DE070C4B1F68BE
:101800003D46354004D11C6034431C6027463546B4
:1018100012180A73F905C915081828431860012021
:10182000F2F778FF0020F8BD0E20F8BD1800014047
:1018300030100140F0B585B0054600682021415CBC
:101840000A46403A04462034092A62D20494F1F749
:1018500013FE039028685F21445C3949C64A511839
:101860008C761268374BD6183476A024045DCC767B
:101870007476A030C4782402CC818778E419CC81B6
:10188000B481447924024C80007920184880D052D9
:101890008024872C0ED020468038B4490F19803F11
:1018A00039782A68165DC0B23246FFF7F5FC3E7003
:1018B000641CEEE7286804467034E17DAB4DE971A5
:1018C0007021415C297262786A72A378AB72E47805
:1018D000EC722F4DA84F785D1C4EBE1900940196F6
:1018E00000F0BEF8785D00F007FB1948385A002870
:1018F00006D13D48385C002802D00225049C03E054
:1019000000F04AF8049C039D00202070284605B092
:10191000F0BD182905D0172907D0162996D009251A
:10192000F2E700F085FC0025EEE7F1F7B1FF054690
:1019300000F0A0FA1648E549085C00F0DDFAE3E79C
:1019400030620000326200000C28010026630000B3
:101950002463000010B5E14A117A0120002915D056
:101960000B4BDA4CE35C012B10D8907A002803D1A2
:10197000D948105C002804D0507A884203D2401C19
:1019800000E000205072411A4842484110BDC04654
:101990002B62000044400100F0B51348CB4A135CB1
:1019A000CE4803721149545A84801149555AC58052
:1019B0000121090646183372B480F5800D4BD21808
:1019C00000231C461D46202B0AD0167837099F405D
:1019D0003C430F2737409F403D43521C1B1DF2E7FD
:1019E00044500560F0BDC046BE630000BA6300000D
:1019F000BC630000C0630000B0B5B84CE07A401C86
:101A0000E07200F0DDF90320C502F2F7BBFA2840CE
:101A1000A84201D1EFF7ACFF012080070068002841
:101A200004D0E17A1B2000F0BBFA13E04E480068B6
:101A3000C1B2102000F0B4FAE17A1A2000F0B0FA36
:101A40000648DB49085C002802D0FFF7BDFD40BF17
:101A5000FFF72EFDF0F7C6FAB0BDC046A863000040
:101A6000F0B5022801D30F2400E00724E51A00D2C4
:101A70000025174B022801D3184600E0FF208C42B6
:101A8000264600D30E46E840B3409442214600D398
:101A900011461840069A059B15460E46002E04D0A6
:101AA00000272F80AD1C761EF8E79C42254600D308
:101AB0001D464B00D218A94207D81080921C491C21
:101AC000F9E700201080921C491CA142F9D9F0BD11
:101AD000FFFF0000022901D3034900E00149085635
:101AE0007047C046DC2801005C280100F8B50446B8
:101AF0001D4805681D48075DE9B2102000F050FA46
:101B000001263346A3401D4007203840032818D043
:101B100002280BD001281BD11548002D21D01549D2
:101B2000F34A515A7F220A40026011E01F46002DFD
:101B30000AD0B004F2F73EFA2120C004F2F700FA0E
:101B400005E01F46002DF4D03006F2F733FA3B468D
:101B5000054803620B341F2020408640074806607A
:101B6000F8BD00210160F3E7000004400C280100EB
:101B7000A00301405C6300004440010080E200E0FB
:101B8000F8B5F2F7FFF904464507F2F703FA002D1E
:101B900002D5410700D58FE0E10700D081E0009039
:101BA0000125EE04600307D5A804F2F7C9F9304611
:101BB000F2F700FA00F010F9E00105D5344203D045
:101BC0002120C004F2F7BCF920040CD5E803F2F799
:101BD000B7F9E24800687549405C002803D1F1F785
:101BE00003FC394805602E02E0031DD52804F2F7F6
:101BF000A7F9DA4F38686D49405C002803D0F1F747
:101C0000F3FB3148056034420ED03148385A002881
:101C10000AD102273846F2F7C5F93846F2F7CAF971
:101C2000F2F7CAFCF1F766FB2A4F3846D030204065
:101C30001036B04209D12848284900220A548A7235
:101C40003046F2F77DF900F037FA2740402F04D1F3
:101C50004020F2F775F900F06DFAA00611D5600486
:101C60000FD5AE03009830420BD030462030F2F74B
:101C700067F93046F2F770F96F48B849085CF1F738
:101C80000FFA600505D5A802F2F75AF908200E49A7
:101C9000086020060FD58020F2F752F9F1F742FBD9
:101CA000F8BDF2F73FF800F083F90420F2F77AF973
:101CB0000120F2F745F9F8BD0320F2F795FC00F09A
:101CC00063FCF0F77DFAF8BD40110140444001008B
:101CD0002463000040000C000A00000100280100FD
:101CE000F8B5F2F74FF90546F2F754F90446052026
:101CF00005420AD0E80707D0F2F73CF80420F2F7D3
:101D000051F90120F2F71CF9F8BD680626D52748DD
:101D1000E74E305C002811D0A8041ED4EEF7FAFF7D
:101D200000281AD02348315CE248305C224A176808
:101D3000F0F7BFFF874210D2F0F7D8FF4020F2F74C
:101D4000FFF81E48305880470120C6023046F2F79F
:101D500031F93046F2F726F900E040BFA80521D559
:101D6000012675022C421DD02846F2F7E9F82846D4
:101D7000F2F7F2F8F1F7EEFA74032046F2F71AF9E7
:101D800035032846F2F70EF92846F2F713F9FFF764
:101D9000E1FD002803D0F003F2F704F902E0204649
:101DA000F2F7CEF8F1F750F8F8BDC046AC66000087
:101DB000444001002C6200003004004058620000E2
:101DC00080B5012080070068002802D0FFF788FF57
:101DD00080BDFFF7D5FE80BD70B5F2F775FBD14829
:101DE000CD4C2018F2F760FC00F0E2F811480068D2
:101DF000002819D0C74EA557002D09D4F2F76CFB67
:101E0000681EA05521688855002D0ED040200EE098
:101E100072B6F2F7B7F8400705D10848F2F7CAF8EA
:101E20000220F2F7BFF862B670BD11200001F2F790
:101E3000C1F870BD140002402962000002000004D5
:101E40000B490A680270120607D400210A464F2A7D
:101E50000BD000238354521CF9E700224F2A03D0F1
:101E600008C98354521CF9E7012108467047C0464F
:101E700044000140B0B594B000201C4C802807D02D
:101E800000212154221801231B06D154401CF5E7E0
:101E90003448D84D285C002809D0012000062118BC
:101EA000144A1318204600F0E7F914B0B0BD684694
:101EB000FFF7C6FF0028F0D06846017807220A40E5
:101EC000D34BEA548906490FD04AA9540121090687
:101ED0006218214600F000FA0D20E4494F28DCD0BA
:101EE0006A46125C0A54401CF8E7C0465C280100B0
:101EF00044400100DC28010070B594B00446BF20C6
:101F0000C043BC4D16490246002A05D0AB18064610
:101F1000BF365E50121DF7E71248285C002801D03A
:101F200014B070BD6846FFF78BFF0028F8D0012C75
:101F30000BD868460078C0210140802907D1B148FC
:101F40002918684600F014FAEAE7022CE8D1AD48F7
:101F50002918684600F0F1F9E2E7C0464440010064
:101F60001C6300004B63000010B5C0490C7B0020CF
:101F7000087361B201290DDB00280BD10120FFF7A6
:101F800029FC641EF5E7002807D10020C043FFF7B5
:101F900021FC641C61B20029F5D4C0B210BDC0465A
:101FA000024A13681954526811547047E410000033
:101FB00010B50020AD4A01460346072B0DD0D45C76
:101FC000052C05D0042C06D101249C40214302E0BD
:101FD00001249C4020435B1CEFE7144A9060116091
:101FE00010BDC04610B50021A0480A460B46072B7D
:101FF0000DD0C45C052C05D0042C06D101249C40D6
:10200000214302E001249C4022435B1CEFE7074B85
:1020100099601A60C079012803D0022804D1C82031
:1020200000E06420F2F776FB10BDC04630000440AB
:10203000FEB51E486F4D285C000736D56F4EA85D73
:10204000012828D879482C18884FB87A7A7A397AB2
:10205000FB7A5B005B1CDBB2009301944906090E1E
:102060005206120E4000401CC3B20220FFF7F8FCDB
:102070006D482A5C6548295C6548285C234600F069
:1020800023FAA85DBB7A7A7A397AFD7A00950194B1
:10209000FFF7E6FCFEBD64482A5C5C48295C5C48AE
:1020A000285C624BEB1800F00FFAFEBD2D620000B9
:1020B000444001002B62000070B54D484D4DFF219A
:1020C0002954164A1368164C2C5D2E683154802012
:1020D000184020431060EFF7C7FB50482C182046EB
:1020E000F1F7EEFF1048285C2146F2F713F80F488D
:1020F0002818F2F705FAF2F73FFA0D4801210160BE
:102100003D48285C002801D0FFF76CFF00F012F872
:1021100070BDC0462962000044400100B403014084
:10212000C9630000AE630000496300004C63000017
:1021300004000240F0B5B1B02D492E4E705C401C39
:1021400070542D4AB75C326850542C48305C0428D7
:1021500001D8082200E00C22022800D80222745C78
:10216000A2423FD9002C01D0032814D32449715C2A
:10217000244AB218009201AD22462B46F1F70AFE1E
:10218000214832582148315C2148305C2B46F2F717
:1021900007F8FFF74DFF012004406000C740B80773
:1021A0000FD01C48315A1C4A0A407908C907890DCA
:1021B000511831523018F2F74DFA18483018F2F72A
:1021C00085FAA0003168081815490968154A815038
:1021D0001548305C15497118F1F700FF2046F2F7F9
:1021E000D9F902E08020F1F7E5FE31B0F0BDC0463C
:1021F0002962000044400100466300002B62000099
:10220000666300005C620000206300004863000019
:10221000476300005C630000FFFD0000AE63000048
:1022200020100140A06600004A6300002663000001
:1022300070B50146223100220C48422A04D08B5C42
:1022400084186373521CF8E701210E06084CA51987
:102250000D3021462A4600F005F9064A931920461A
:10226000294600F009F8002070BDC0460C28010086
:102270005C280100DC280100F0B585B004910390D2
:10228000029301920020022824D00090820001A92C
:10229000895803AB9A580023042B18D000240D460C
:1022A000102C10D016571719012038563018102648
:1022B000BE5780191126BE578019801C80082870CF
:1022C0006D1CA41CECE7083120325B1CE4E700988D
:1022D000401CD8E705B0F0BD80B503789B09022B00
:1022E00003D90D3000F0BEF880BD00208028FBD05F
:1022F000002313540B54401CF8E7F8B500920D4628
:1023000006460020C74303204402A74214DA3046A1
:10231000294600F04BF83F18A742F6DA1F20384054
:1023200001218140F817C00E381840118000009B31
:102330001A588A431A50E8E7F8BDBFB50C4605465F
:10234000007800918009022801D8162300E00D23AF
:1023500002A80C22294600F061F800202856002827
:1023600000D4BFBD02A829462246FFF7C6FFBFBD65
:10237000BFB50C46054600788009032804D30094B5
:1023800002A80C220D2303E0009402A8B0224F23E0
:10239000294600F043F800202856002800D4BFBD8D
:1023A00002A829462246FFF7A8FFBFBDFEB502914D
:1023B000C178019102784378847800260094DDB2D8
:1023C00002994F5D01998D180570D2B2D740EAB2DB
:1023D000082A15D3083D05705B1C4370DAB20179F9
:1023E0008A4203D900272A460B4E0AE029060DD05F
:1023F0000299895CEAB2019CA21A009C9140CF1913
:102400002A462740F619A742D9D001E00022F8E772
:10241000701C80B2FEBDC046580B0000B0B55B1EFC
:102420000371D3084370072422400270C95C551C15
:102430000570D140C90700D00824C4700021CD43E5
:10244000A540EC438470072A03D1002202705A1C75
:1024500042700498C02904D00022D2434250091D82
:10246000F8E7B0BDFEB500910023C55601AC25804C
:10247000467803277743AD007F19FF1CBF08E7802C
:1024800077007F19BF1CBF08A7807519AD1CAD0868
:102490006580803A811CFF2B14D87F2B144600D80E
:1024A000009CE4189D084E5D0025042D08D0B70758
:1024B0007F0F01A8C05D60556D1CF0B28608F4E77F
:1024C0001B1DE8E7FEBD0000F0B587B00393009246
:1024D0000C224243284810180690284C1419480032
:1024E00016210290081A01900B21C8430590002084
:1024F000102831D0012104908140059E0B36002523
:102500000398202D0BD0425B114202D0059A0B326A
:1025100002E00322AA40D2431640AD1CF1E7314647
:102520000198C140164A1140029886401640059D08
:10253000002D0AD006984219D7686019C368374041
:10254000D7600B40C3602D1DF2E706980C30069053
:102550000C340498401CCBE700200A49009B042857
:1025600008D01A46C240D20701D100220A60091DD4
:10257000401CF4E707B0F0BD000006400000074033
:10258000FFFF3F00B000024008480169002900D069
:102590007047016A0029FBD1016B0029F8D1016C59
:1025A0000029F5D1002101607047C04600010040BC
:1025B0006236D468E8334A14A3092D069603130241
:1025C0004601A5005F003F002500180011000D0026
:1025D00008000700070006000400040004000400CF
:1025E000040011A0272C50036E002D002A002300A8
:1025F0002000170010000400030003000300000087
:1026000000000000000000000000000000000000CA
:08261000000000000087020138
:04000005000100C135
:00000001FF
